{
  "_format": "hh-sol-artifact-1",
  "contractName": "WavePortal",
  "sourceName": "contracts/WavePortal.sol",
  "abi": [
    {
      "inputs": [],
      "stateMutability": "payable",
      "type": "constructor"
    },
    {
      "anonymous": false,
      "inputs": [
        {
          "indexed": true,
          "internalType": "address",
          "name": "from",
          "type": "address"
        },
        {
          "indexed": false,
          "internalType": "uint256",
          "name": "timestamp",
          "type": "uint256"
        },
        {
          "indexed": false,
          "internalType": "string",
          "name": "message",
          "type": "string"
        }
      ],
      "name": "NewWave",
      "type": "event"
    },
    {
      "inputs": [],
      "name": "getAllWaves",
      "outputs": [
        {
          "components": [
            {
              "internalType": "address",
              "name": "waver",
              "type": "address"
            },
            {
              "internalType": "uint256",
              "name": "timestamp",
              "type": "uint256"
            },
            {
              "internalType": "string",
              "name": "message",
              "type": "string"
            }
          ],
          "internalType": "struct WavePortal.Wave[]",
          "name": "",
          "type": "tuple[]"
        }
      ],
      "stateMutability": "view",
      "type": "function"
    },
    {
      "inputs": [],
      "name": "getTotalWaves",
      "outputs": [
        {
          "internalType": "uint256",
          "name": "",
          "type": "uint256"
        }
      ],
      "stateMutability": "view",
      "type": "function"
    },
    {
      "inputs": [
        {
          "internalType": "address",
          "name": "",
          "type": "address"
        }
      ],
      "name": "lastWavedAt",
      "outputs": [
        {
          "internalType": "uint256",
          "name": "",
          "type": "uint256"
        }
      ],
      "stateMutability": "view",
      "type": "function"
    },
    {
      "inputs": [
        {
          "internalType": "address",
          "name": "",
          "type": "address"
        }
      ],
      "name": "userAddressToWavesNumber",
      "outputs": [
        {
          "internalType": "uint256",
          "name": "",
          "type": "uint256"
        }
      ],
      "stateMutability": "view",
      "type": "function"
    },
    {
      "inputs": [
        {
          "internalType": "string",
          "name": "_message",
          "type": "string"
        }
      ],
      "name": "wave",
      "outputs": [],
      "stateMutability": "nonpayable",
      "type": "function"
    }
  ],
  "bytecode": "0x60806040526200004f6040518060400160405280601481526020017f49276d206120736d61727420636f6e74726163740000000000000000000000008152506200007760201b620006d11760201c565b606444426200005f9190620001c4565b6200006b919062000261565b60018190555062000308565b62000117816040516024016200008e919062000184565b6040516020818303038152906040527f41304fac000000000000000000000000000000000000000000000000000000007bffffffffffffffffffffffffffffffffffffffffffffffffffffffff19166020820180517bffffffffffffffffffffffffffffffffffffffffffffffffffffffff83818316178352505050506200011a60201b60201c565b50565b60008151905060006a636f6e736f6c652e6c6f679050602083016000808483855afa5050505050565b60006200015082620001a8565b6200015c8185620001b3565b93506200016e8185602086016200022b565b6200017981620002f7565b840191505092915050565b60006020820190508181036000830152620001a0818462000143565b905092915050565b600081519050919050565b600082825260208201905092915050565b6000620001d18262000221565b9150620001de8362000221565b9250827fffffffffffffffffffffffffffffffffffffffffffffffffffffffffffffffff0382111562000216576200021562000299565b5b828201905092915050565b6000819050919050565b60005b838110156200024b5780820151818401526020810190506200022e565b838111156200025b576000848401525b50505050565b60006200026e8262000221565b91506200027b8362000221565b9250826200028e576200028d620002c8565b5b828206905092915050565b7f4e487b7100000000000000000000000000000000000000000000000000000000600052601160045260246000fd5b7f4e487b7100000000000000000000000000000000000000000000000000000000600052601260045260246000fd5b6000601f19601f8301169050919050565b61129080620003186000396000f3fe608060405234801561001057600080fd5b50600436106100575760003560e01c8063449d46c01461005c57806352c786ae146100785780639a2cdc08146100a8578063a42a4663146100c6578063bd43a908146100f6575b600080fd5b61007660048036038101906100719190610a1a565b610114565b005b610092600480360381019061008d91906109f1565b610505565b60405161009f9190610daa565b60405180910390f35b6100b061051d565b6040516100bd9190610daa565b60405180910390f35b6100e060048036038101906100db91906109f1565b610568565b6040516100ed9190610daa565b60405180910390f35b6100fe610580565b60405161010b9190610c83565b60405180910390f35b42603c600360003373ffffffffffffffffffffffffffffffffffffffff1673ffffffffffffffffffffffffffffffffffffffff168152602001908152602001600020546101619190610ebc565b106101a1576040517f08c379a000000000000000000000000000000000000000000000000000000000815260040161019890610d8a565b60405180910390fd5b42600360003373ffffffffffffffffffffffffffffffffffffffff1673ffffffffffffffffffffffffffffffffffffffff168152602001908152602001600020819055506000808154809291906101f790610ff3565b9190505550600260003373ffffffffffffffffffffffffffffffffffffffff1673ffffffffffffffffffffffffffffffffffffffff168152602001908152602001600020600081548092919061024c90610ff3565b9190505550600460405180606001604052803373ffffffffffffffffffffffffffffffffffffffff16815260200142815260200183815250908060018154018082558091505060019003906000526020600020906003020160009091909190915060008201518160000160006101000a81548173ffffffffffffffffffffffffffffffffffffffff021916908373ffffffffffffffffffffffffffffffffffffffff16021790555060208201518160010155604082015181600201908051906020019061031a9291906108d1565b5050506064600154424461032e9190610ebc565b6103389190610ebc565b610342919061103c565b60018190555060326001541161044f576000655af3107a40009050478111156103a0576040517f08c379a000000000000000000000000000000000000000000000000000000000815260040161039790610d6a565b60405180910390fd5b60003373ffffffffffffffffffffffffffffffffffffffff16826040516103c690610c6e565b60006040518083038185875af1925050503d8060008114610403576040519150601f19603f3d011682016040523d82523d6000602084013e610408565b606091505b505090508061044c576040517f08c379a000000000000000000000000000000000000000000000000000000000815260040161044390610d4a565b60405180910390fd5b50505b6104b26040518060600160405280603f815260200161121c603f913933600260003373ffffffffffffffffffffffffffffffffffffffff1673ffffffffffffffffffffffffffffffffffffffff168152602001908152602001600020548461076a565b3373ffffffffffffffffffffffffffffffffffffffff167f5f7e16dc676677766a70e9c5628aa6c54ddb8b6e5188e2ae1e1f17f1ffbea71642836040516104fa929190610dc5565b60405180910390a250565b60026020528060005260406000206000915090505481565b60006105606040518060400160405280600a81526020017f256420776176657320210000000000000000000000000000000000000000000081525060005461080c565b600054905090565b60036020528060005260406000206000915090505481565b60606004805480602002602001604051908101604052809291908181526020016000905b828210156106c857838290600052602060002090600302016040518060600160405290816000820160009054906101000a900473ffffffffffffffffffffffffffffffffffffffff1673ffffffffffffffffffffffffffffffffffffffff1673ffffffffffffffffffffffffffffffffffffffff1681526020016001820154815260200160028201805461063790610f90565b80601f016020809104026020016040519081016040528092919081815260200182805461066390610f90565b80156106b05780601f10610685576101008083540402835291602001916106b0565b820191906000526020600020905b81548152906001019060200180831161069357829003601f168201915b505050505081525050815260200190600101906105a4565b50505050905090565b610767816040516024016106e59190610ca5565b6040516020818303038152906040527f41304fac000000000000000000000000000000000000000000000000000000007bffffffffffffffffffffffffffffffffffffffffffffffffffffffff19166020820180517bffffffffffffffffffffffffffffffffffffffffffffffffffffffff83818316178352505050506108a8565b50565b610806848484846040516024016107849493929190610cc7565b6040516020818303038152906040527f4c55f234000000000000000000000000000000000000000000000000000000007bffffffffffffffffffffffffffffffffffffffffffffffffffffffff19166020820180517bffffffffffffffffffffffffffffffffffffffffffffffffffffffff83818316178352505050506108a8565b50505050565b6108a48282604051602401610822929190610d1a565b6040516020818303038152906040527f9710a9d0000000000000000000000000000000000000000000000000000000007bffffffffffffffffffffffffffffffffffffffffffffffffffffffff19166020820180517bffffffffffffffffffffffffffffffffffffffffffffffffffffffff83818316178352505050506108a8565b5050565b60008151905060006a636f6e736f6c652e6c6f679050602083016000808483855afa5050505050565b8280546108dd90610f90565b90600052602060002090601f0160209004810192826108ff5760008555610946565b82601f1061091857805160ff1916838001178555610946565b82800160010185558215610946579182015b8281111561094557825182559160200191906001019061092a565b5b5090506109539190610957565b5090565b5b80821115610970576000816000905550600101610958565b5090565b600061098761098284610e1a565b610df5565b90508281526020810184848401111561099f57600080fd5b6109aa848285610f4e565b509392505050565b6000813590506109c181611204565b92915050565b600082601f8301126109d857600080fd5b81356109e8848260208601610974565b91505092915050565b600060208284031215610a0357600080fd5b6000610a11848285016109b2565b91505092915050565b600060208284031215610a2c57600080fd5b600082013567ffffffffffffffff811115610a4657600080fd5b610a52848285016109c7565b91505092915050565b6000610a678383610c00565b905092915050565b610a7881610f12565b82525050565b610a8781610f12565b82525050565b6000610a9882610e5b565b610aa28185610e7e565b935083602082028501610ab485610e4b565b8060005b85811015610af05784840389528151610ad18582610a5b565b9450610adc83610e71565b925060208a01995050600181019050610ab8565b50829750879550505050505092915050565b6000610b0d82610e66565b610b178185610e9a565b9350610b27818560208601610f5d565b610b3081611129565b840191505092915050565b6000610b4682610e66565b610b508185610eab565b9350610b60818560208601610f5d565b610b6981611129565b840191505092915050565b6000610b81602483610eab565b9150610b8c8261113a565b604082019050919050565b6000610ba4600083610e8f565b9150610baf82611189565b600082019050919050565b6000610bc7603383610eab565b9150610bd28261118c565b604082019050919050565b6000610bea600e83610eab565b9150610bf5826111db565b602082019050919050565b6000606083016000830151610c186000860182610a6f565b506020830151610c2b6020860182610c50565b5060408301518482036040860152610c438282610b02565b9150508091505092915050565b610c5981610f44565b82525050565b610c6881610f44565b82525050565b6000610c7982610b97565b9150819050919050565b60006020820190508181036000830152610c9d8184610a8d565b905092915050565b60006020820190508181036000830152610cbf8184610b3b565b905092915050565b60006080820190508181036000830152610ce18187610b3b565b9050610cf06020830186610a7e565b610cfd6040830185610c5f565b8181036060830152610d0f8184610b3b565b905095945050505050565b60006040820190508181036000830152610d348185610b3b565b9050610d436020830184610c5f565b9392505050565b60006020820190508181036000830152610d6381610b74565b9050919050565b60006020820190508181036000830152610d8381610bba565b9050919050565b60006020820190508181036000830152610da381610bdd565b9050919050565b6000602082019050610dbf6000830184610c5f565b92915050565b6000604082019050610dda6000830185610c5f565b8181036020830152610dec8184610b3b565b90509392505050565b6000610dff610e10565b9050610e0b8282610fc2565b919050565b6000604051905090565b600067ffffffffffffffff821115610e3557610e346110fa565b5b610e3e82611129565b9050602081019050919050565b6000819050602082019050919050565b600081519050919050565b600081519050919050565b6000602082019050919050565b600082825260208201905092915050565b600081905092915050565b600082825260208201905092915050565b600082825260208201905092915050565b6000610ec782610f44565b9150610ed283610f44565b9250827fffffffffffffffffffffffffffffffffffffffffffffffffffffffffffffffff03821115610f0757610f0661106d565b5b828201905092915050565b6000610f1d82610f24565b9050919050565b600073ffffffffffffffffffffffffffffffffffffffff82169050919050565b6000819050919050565b82818337600083830152505050565b60005b83811015610f7b578082015181840152602081019050610f60565b83811115610f8a576000848401525b50505050565b60006002820490506001821680610fa857607f821691505b60208210811415610fbc57610fbb6110cb565b5b50919050565b610fcb82611129565b810181811067ffffffffffffffff82111715610fea57610fe96110fa565b5b80604052505050565b6000610ffe82610f44565b91507fffffffffffffffffffffffffffffffffffffffffffffffffffffffffffffffff8214156110315761103061106d565b5b600182019050919050565b600061104782610f44565b915061105283610f44565b9250826110625761106161109c565b5b828206905092915050565b7f4e487b7100000000000000000000000000000000000000000000000000000000600052601160045260246000fd5b7f4e487b7100000000000000000000000000000000000000000000000000000000600052601260045260246000fd5b7f4e487b7100000000000000000000000000000000000000000000000000000000600052602260045260246000fd5b7f4e487b7100000000000000000000000000000000000000000000000000000000600052604160045260246000fd5b6000601f19601f8301169050919050565b7f4661696c6564207769746864726177206d6f6e65792066726f6d20636f6e747260008201527f6163742e00000000000000000000000000000000000000000000000000000000602082015250565b50565b7f547279696e6720746f207769746864726177206d6f7265206d6f6e657920746860008201527f616e2074686520636f6e74726163742068617300000000000000000000000000602082015250565b7f576169742031206d696e75746573000000000000000000000000000000000000600082015250565b61120d81610f12565b811461121857600080fd5b5056fe25732077617665642061742075732c2068652f7368652077617665642061742075732025732074696d65732c20746865206d6573736167652069733a202573a2646970667358221220de5b21df09cfea21fbe40de2763cbe8f2ada6eba56d5e6174a87c846a55d34e064736f6c63430008040033",
  "linkReferences": {},
  "deployedLinkReferences": {}
}